{
  "contractName": "Voting",
  "abi": [
    {
      "inputs": [],
      "stateMutability": "nonpayable",
      "type": "constructor"
    },
    {
      "inputs": [
        {
          "internalType": "uint256",
          "name": "",
          "type": "uint256"
        }
      ],
      "name": "candidates",
      "outputs": [
        {
          "internalType": "uint256",
          "name": "id",
          "type": "uint256"
        },
        {
          "internalType": "string",
          "name": "name",
          "type": "string"
        },
        {
          "internalType": "string",
          "name": "party",
          "type": "string"
        },
        {
          "internalType": "uint256",
          "name": "voteCount",
          "type": "uint256"
        }
      ],
      "stateMutability": "view",
      "type": "function",
      "constant": true
    },
    {
      "inputs": [],
      "name": "countCandidates",
      "outputs": [
        {
          "internalType": "uint256",
          "name": "",
          "type": "uint256"
        }
      ],
      "stateMutability": "view",
      "type": "function",
      "constant": true
    },
    {
      "inputs": [],
      "name": "owner",
      "outputs": [
        {
          "internalType": "address",
          "name": "",
          "type": "address"
        }
      ],
      "stateMutability": "view",
      "type": "function",
      "constant": true
    },
    {
      "inputs": [],
      "name": "state",
      "outputs": [
        {
          "internalType": "enum Voting.ElectionState",
          "name": "",
          "type": "uint8"
        }
      ],
      "stateMutability": "view",
      "type": "function",
      "constant": true
    },
    {
      "inputs": [
        {
          "internalType": "address",
          "name": "",
          "type": "address"
        }
      ],
      "name": "voters",
      "outputs": [
        {
          "internalType": "bool",
          "name": "",
          "type": "bool"
        }
      ],
      "stateMutability": "view",
      "type": "function",
      "constant": true
    },
    {
      "inputs": [
        {
          "internalType": "string",
          "name": "name",
          "type": "string"
        },
        {
          "internalType": "string",
          "name": "party",
          "type": "string"
        }
      ],
      "name": "addCandidate",
      "outputs": [
        {
          "internalType": "uint256",
          "name": "",
          "type": "uint256"
        }
      ],
      "stateMutability": "nonpayable",
      "type": "function"
    },
    {
      "inputs": [
        {
          "internalType": "uint256",
          "name": "candidateID",
          "type": "uint256"
        }
      ],
      "name": "vote",
      "outputs": [],
      "stateMutability": "nonpayable",
      "type": "function"
    },
    {
      "inputs": [],
      "name": "checkVote",
      "outputs": [
        {
          "internalType": "bool",
          "name": "",
          "type": "bool"
        }
      ],
      "stateMutability": "view",
      "type": "function",
      "constant": true
    },
    {
      "inputs": [],
      "name": "getCountCandidates",
      "outputs": [
        {
          "internalType": "uint256",
          "name": "",
          "type": "uint256"
        }
      ],
      "stateMutability": "view",
      "type": "function",
      "constant": true
    },
    {
      "inputs": [
        {
          "internalType": "uint256",
          "name": "candidateID",
          "type": "uint256"
        }
      ],
      "name": "getCandidate",
      "outputs": [
        {
          "internalType": "uint256",
          "name": "",
          "type": "uint256"
        },
        {
          "internalType": "string",
          "name": "",
          "type": "string"
        },
        {
          "internalType": "string",
          "name": "",
          "type": "string"
        },
        {
          "internalType": "uint256",
          "name": "",
          "type": "uint256"
        }
      ],
      "stateMutability": "view",
      "type": "function",
      "constant": true
    },
    {
      "inputs": [],
      "name": "startElection",
      "outputs": [],
      "stateMutability": "nonpayable",
      "type": "function"
    },
    {
      "inputs": [],
      "name": "endElection",
      "outputs": [],
      "stateMutability": "nonpayable",
      "type": "function"
    },
    {
      "inputs": [],
      "name": "getElectionState",
      "outputs": [
        {
          "internalType": "enum Voting.ElectionState",
          "name": "",
          "type": "uint8"
        }
      ],
      "stateMutability": "view",
      "type": "function",
      "constant": true
    }
  ],
  "bytecode": "0x608060405234801561001057600080fd5b50336000806101000a81548173ffffffffffffffffffffffffffffffffffffffff021916908373ffffffffffffffffffffffffffffffffffffffff1602179055506000600360006101000a81548160ff0219169083600281111561007757610076610081565b5b02179055506100b0565b7f4e487b7100000000000000000000000000000000000000000000000000000000600052602160045260246000fd5b611522806100bf6000396000f3fe608060405234801561001057600080fd5b50600436106100cf5760003560e01c806362d73eb81161008c578063b0417e9811610066578063b0417e9814610206578063b86eda9114610224578063c19d93fb14610242578063f869809c14610260576100cf565b806362d73eb8146101ae5780638da5cb5b146101b8578063a3ec138d146101d6576100cf565b80630121b93f146100d45780630a84a217146100f057806326541b561461010e5780633477ee2e1461013e57806335b8e8201461017157806359f78468146101a4575b600080fd5b6100ee60048036038101906100e99190610b83565b61027e565b005b6100f8610423565b6040516101059190610bbf565b60405180910390f35b61012860048036038101906101239190610d20565b61042d565b6040516101359190610bbf565b60405180910390f35b61015860048036038101906101539190610b83565b61055d565b6040516101689493929190610e17565b60405180910390f35b61018b60048036038101906101869190610b83565b61069d565b60405161019b9493929190610e17565b60405180910390f35b6101ac61080f565b005b6101b6610940565b005b6101c0610a71565b6040516101cd9190610eab565b60405180910390f35b6101f060048036038101906101eb9190610ef2565b610a95565b6040516101fd9190610f3a565b60405180910390f35b61020e610ab5565b60405161021b9190610f3a565b60405180910390f35b61022c610b09565b6040516102399190610bbf565b60405180910390f35b61024a610b0f565b6040516102579190610fcc565b60405180910390f35b610268610b22565b6040516102759190610fcc565b60405180910390f35b6001600281111561029257610291610f55565b5b600360009054906101000a900460ff1660028111156102b4576102b3610f55565b5b146102f4576040517f08c379a00000000000000000000000000000000000000000000000000000000081526004016102eb90611033565b60405180910390fd5b60008111801561030657506004548111155b610345576040517f08c379a000000000000000000000000000000000000000000000000000000000815260040161033c9061109f565b60405180910390fd5b600260003373ffffffffffffffffffffffffffffffffffffffff1673ffffffffffffffffffffffffffffffffffffffff16815260200190815260200160002060009054906101000a900460ff161561039c57600080fd5b6001600260003373ffffffffffffffffffffffffffffffffffffffff1673ffffffffffffffffffffffffffffffffffffffff16815260200190815260200160002060006101000a81548160ff02191690831515021790555060016000828152602001908152602001600020600301600081548092919061041b906110ee565b919050555050565b6000600454905090565b60008060009054906101000a900473ffffffffffffffffffffffffffffffffffffffff1673ffffffffffffffffffffffffffffffffffffffff163373ffffffffffffffffffffffffffffffffffffffff16146104be576040517f08c379a00000000000000000000000000000000000000000000000000000000081526004016104b590611182565b60405180910390fd5b600460008154809291906104d1906110ee565b919050555060405180608001604052806004548152602001848152602001838152602001600081525060016000600454815260200190815260200160002060008201518160000155602082015181600101908161052e91906113ae565b50604082015181600201908161054491906113ae565b5060608201518160030155905050600454905092915050565b6001602052806000526040600020600091509050806000015490806001018054610586906111d1565b80601f01602080910402602001604051908101604052809291908181526020018280546105b2906111d1565b80156105ff5780601f106105d4576101008083540402835291602001916105ff565b820191906000526020600020905b8154815290600101906020018083116105e257829003601f168201915b505050505090806002018054610614906111d1565b80601f0160208091040260200160405190810160405280929190818152602001828054610640906111d1565b801561068d5780601f106106625761010080835404028352916020019161068d565b820191906000526020600020905b81548152906001019060200180831161067057829003601f168201915b5050505050908060030154905084565b6000606080600084600160008781526020019081526020016000206001016001600088815260200190815260200160002060020160016000898152602001908152602001600020600301548280546106f4906111d1565b80601f0160208091040260200160405190810160405280929190818152602001828054610720906111d1565b801561076d5780601f106107425761010080835404028352916020019161076d565b820191906000526020600020905b81548152906001019060200180831161075057829003601f168201915b50505050509250818054610780906111d1565b80601f01602080910402602001604051908101604052809291908181526020018280546107ac906111d1565b80156107f95780601f106107ce576101008083540402835291602001916107f9565b820191906000526020600020905b8154815290600101906020018083116107dc57829003601f168201915b5050505050915093509350935093509193509193565b60008054906101000a900473ffffffffffffffffffffffffffffffffffffffff1673ffffffffffffffffffffffffffffffffffffffff163373ffffffffffffffffffffffffffffffffffffffff161461089d576040517f08c379a000000000000000000000000000000000000000000000000000000000815260040161089490611182565b60405180910390fd5b600160028111156108b1576108b0610f55565b5b600360009054906101000a900460ff1660028111156108d3576108d2610f55565b5b14610913576040517f08c379a000000000000000000000000000000000000000000000000000000000815260040161090a90611033565b60405180910390fd5b6002600360006101000a81548160ff0219169083600281111561093957610938610f55565b5b0217905550565b60008054906101000a900473ffffffffffffffffffffffffffffffffffffffff1673ffffffffffffffffffffffffffffffffffffffff163373ffffffffffffffffffffffffffffffffffffffff16146109ce576040517f08c379a00000000000000000000000000000000000000000000000000000000081526004016109c590611182565b60405180910390fd5b600060028111156109e2576109e1610f55565b5b600360009054906101000a900460ff166002811115610a0457610a03610f55565b5b14610a44576040517f08c379a0000000000000000000000000000000000000000000000000000000008152600401610a3b906114cc565b60405180910390fd5b6001600360006101000a81548160ff02191690836002811115610a6a57610a69610f55565b5b0217905550565b60008054906101000a900473ffffffffffffffffffffffffffffffffffffffff1681565b60026020528060005260406000206000915054906101000a900460ff1681565b6000600260003373ffffffffffffffffffffffffffffffffffffffff1673ffffffffffffffffffffffffffffffffffffffff16815260200190815260200160002060009054906101000a900460ff16905090565b60045481565b600360009054906101000a900460ff1681565b6000600360009054906101000a900460ff16905090565b6000604051905090565b600080fd5b600080fd5b6000819050919050565b610b6081610b4d565b8114610b6b57600080fd5b50565b600081359050610b7d81610b57565b92915050565b600060208284031215610b9957610b98610b43565b5b6000610ba784828501610b6e565b91505092915050565b610bb981610b4d565b82525050565b6000602082019050610bd46000830184610bb0565b92915050565b600080fd5b600080fd5b6000601f19601f8301169050919050565b7f4e487b7100000000000000000000000000000000000000000000000000000000600052604160045260246000fd5b610c2d82610be4565b810181811067ffffffffffffffff82111715610c4c57610c4b610bf5565b5b80604052505050565b6000610c5f610b39565b9050610c6b8282610c24565b919050565b600067ffffffffffffffff821115610c8b57610c8a610bf5565b5b610c9482610be4565b9050602081019050919050565b82818337600083830152505050565b6000610cc3610cbe84610c70565b610c55565b905082815260208101848484011115610cdf57610cde610bdf565b5b610cea848285610ca1565b509392505050565b600082601f830112610d0757610d06610bda565b5b8135610d17848260208601610cb0565b91505092915050565b60008060408385031215610d3757610d36610b43565b5b600083013567ffffffffffffffff811115610d5557610d54610b48565b5b610d6185828601610cf2565b925050602083013567ffffffffffffffff811115610d8257610d81610b48565b5b610d8e85828601610cf2565b9150509250929050565b600081519050919050565b600082825260208201905092915050565b60005b83811015610dd2578082015181840152602081019050610db7565b60008484015250505050565b6000610de982610d98565b610df38185610da3565b9350610e03818560208601610db4565b610e0c81610be4565b840191505092915050565b6000608082019050610e2c6000830187610bb0565b8181036020830152610e3e8186610dde565b90508181036040830152610e528185610dde565b9050610e616060830184610bb0565b95945050505050565b600073ffffffffffffffffffffffffffffffffffffffff82169050919050565b6000610e9582610e6a565b9050919050565b610ea581610e8a565b82525050565b6000602082019050610ec06000830184610e9c565b92915050565b610ecf81610e8a565b8114610eda57600080fd5b50565b600081359050610eec81610ec6565b92915050565b600060208284031215610f0857610f07610b43565b5b6000610f1684828501610edd565b91505092915050565b60008115159050919050565b610f3481610f1f565b82525050565b6000602082019050610f4f6000830184610f2b565b92915050565b7f4e487b7100000000000000000000000000000000000000000000000000000000600052602160045260246000fd5b60038110610f9557610f94610f55565b5b50565b6000819050610fa682610f84565b919050565b6000610fb682610f98565b9050919050565b610fc681610fab565b82525050565b6000602082019050610fe16000830184610fbd565b92915050565b7f456c656374696f6e206973206e6f74206163746976652e000000000000000000600082015250565b600061101d601783610da3565b915061102882610fe7565b602082019050919050565b6000602082019050818103600083015261104c81611010565b9050919050565b7f496e76616c69642063616e6469646174652e0000000000000000000000000000600082015250565b6000611089601283610da3565b915061109482611053565b602082019050919050565b600060208201905081810360008301526110b88161107c565b9050919050565b7f4e487b7100000000000000000000000000000000000000000000000000000000600052601160045260246000fd5b60006110f982610b4d565b91507fffffffffffffffffffffffffffffffffffffffffffffffffffffffffffffffff820361112b5761112a6110bf565b5b600182019050919050565b7f4e6f7420617574686f72697a6564000000000000000000000000000000000000600082015250565b600061116c600e83610da3565b915061117782611136565b602082019050919050565b6000602082019050818103600083015261119b8161115f565b9050919050565b7f4e487b7100000000000000000000000000000000000000000000000000000000600052602260045260246000fd5b600060028204905060018216806111e957607f821691505b6020821081036111fc576111fb6111a2565b5b50919050565b60008190508160005260206000209050919050565b60006020601f8301049050919050565b600082821b905092915050565b6000600883026112647fffffffffffffffffffffffffffffffffffffffffffffffffffffffffffffffff82611227565b61126e8683611227565b95508019841693508086168417925050509392505050565b6000819050919050565b60006112ab6112a66112a184610b4d565b611286565b610b4d565b9050919050565b6000819050919050565b6112c583611290565b6112d96112d1826112b2565b848454611234565b825550505050565b600090565b6112ee6112e1565b6112f98184846112bc565b505050565b5b8181101561131d576113126000826112e6565b6001810190506112ff565b5050565b601f8211156113625761133381611202565b61133c84611217565b8101602085101561134b578190505b61135f61135785611217565b8301826112fe565b50505b505050565b600082821c905092915050565b600061138560001984600802611367565b1980831691505092915050565b600061139e8383611374565b9150826002028217905092915050565b6113b782610d98565b67ffffffffffffffff8111156113d0576113cf610bf5565b5b6113da82546111d1565b6113e5828285611321565b600060209050601f8311600181146114185760008415611406578287015190505b6114108582611392565b865550611478565b601f19841661142686611202565b60005b8281101561144e57848901518255600182019150602085019450602081019050611429565b8683101561146b5784890151611467601f891682611374565b8355505b6001600288020188555050505b505050505050565b7f456c656374696f6e2068617320616c726561647920737461727465642e000000600082015250565b60006114b6601d83610da3565b91506114c182611480565b602082019050919050565b600060208201905081810360008301526114e5816114a9565b905091905056fea26469706673582212200ed5aedab0f266c1069745aaa518d05b6fec12ca49ecfd4815f80f64e176411464736f6c63430008140033",
  "immutableReferences": {},
  "source": "// SPDX-License-Identifier: MIT\npragma solidity ^0.8.20;\n\ncontract Voting {\n    address public owner;\n\n    struct Candidate {\n        uint id;\n        string name;\n        string party;\n        uint voteCount;\n    }\n\n    mapping (uint => Candidate) public candidates;\n    mapping (address => bool) public voters;\n\n    enum ElectionState {\n        NotStarted,\n        Active,\n        Ended\n    }\n\n    ElectionState public state;\n    uint public countCandidates;\n\n    constructor() {\n        owner = msg.sender;\n        state = ElectionState.NotStarted;\n    }\n\n    modifier onlyOwner() {\n        require(msg.sender == owner, \"Not authorized\");\n        _;\n    }\n\n    function addCandidate(string memory name, string memory party) public onlyOwner returns(uint) {\n               countCandidates ++;\n               candidates[countCandidates] = Candidate(countCandidates, name, party, 0);\n               return countCandidates;\n    }\n   \n    function vote(uint candidateID) public {\n\n       require(state == ElectionState.Active, \"Election is not active.\");\n   \n       require(candidateID > 0 && candidateID <= countCandidates, \"Invalid candidate.\");\n\n       require(!voters[msg.sender]);\n              \n       voters[msg.sender] = true;\n       \n       candidates[candidateID].voteCount ++;\n    }\n    \n    function checkVote() public view returns(bool){\n        return voters[msg.sender];\n    }\n       \n    function getCountCandidates() public view returns(uint) {\n        return countCandidates;\n    }\n\n    function getCandidate(uint candidateID) public view returns (uint,string memory, string memory,uint) {\n        return (candidateID,candidates[candidateID].name,candidates[candidateID].party,candidates[candidateID].voteCount);\n    }\n\n    function startElection() public onlyOwner {\n        require(state == ElectionState.NotStarted, \"Election has already started.\");\n        state = ElectionState.Active;\n    }\n\n    function endElection() public onlyOwner {\n        require(state == ElectionState.Active, \"Election is not active.\");\n        state = ElectionState.Ended;\n    }\n\n    function getElectionState() public view returns (ElectionState) {\n        return state;\n    }\n}\n",
  "sourcePath": "D:\\Code\\Repo\\Voting-System\\server\\blockchain\\contracts\\Voting.sol",
  "compiler": {
    "name": "solc",
    "version": "0.8.20+commit.a1b79de6.Emscripten.clang"
  },
  "schemaVersion": "3.4.16",
  "updatedAt": "2026-07-02T16:40:10.926Z",
  "networkType": "ethereum",
  "devdoc": {
    "kind": "dev",
    "methods": {},
    "version": 1
  },
  "userdoc": {
    "kind": "user",
    "methods": {},
    "version": 1
  }
}