{
  "contractName": "Voting",
  "abi": [
    {
      "inputs": [],
      "payable": false,
      "stateMutability": "nonpayable",
      "type": "constructor"
    },
    {
      "constant": true,
      "inputs": [
        {
          "internalType": "uint256",
          "name": "",
          "type": "uint256"
        }
      ],
      "name": "candidates",
      "outputs": [
        {
          "internalType": "uint256",
          "name": "id",
          "type": "uint256"
        },
        {
          "internalType": "string",
          "name": "name",
          "type": "string"
        },
        {
          "internalType": "string",
          "name": "party",
          "type": "string"
        },
        {
          "internalType": "uint256",
          "name": "voteCount",
          "type": "uint256"
        }
      ],
      "payable": false,
      "stateMutability": "view",
      "type": "function"
    },
    {
      "constant": true,
      "inputs": [],
      "name": "countCandidates",
      "outputs": [
        {
          "internalType": "uint256",
          "name": "",
          "type": "uint256"
        }
      ],
      "payable": false,
      "stateMutability": "view",
      "type": "function"
    },
    {
      "constant": true,
      "inputs": [],
      "name": "owner",
      "outputs": [
        {
          "internalType": "address",
          "name": "",
          "type": "address"
        }
      ],
      "payable": false,
      "stateMutability": "view",
      "type": "function"
    },
    {
      "constant": true,
      "inputs": [],
      "name": "state",
      "outputs": [
        {
          "internalType": "enum Voting.ElectionState",
          "name": "",
          "type": "uint8"
        }
      ],
      "payable": false,
      "stateMutability": "view",
      "type": "function"
    },
    {
      "constant": true,
      "inputs": [
        {
          "internalType": "address",
          "name": "",
          "type": "address"
        }
      ],
      "name": "voters",
      "outputs": [
        {
          "internalType": "bool",
          "name": "",
          "type": "bool"
        }
      ],
      "payable": false,
      "stateMutability": "view",
      "type": "function"
    },
    {
      "constant": false,
      "inputs": [
        {
          "internalType": "string",
          "name": "name",
          "type": "string"
        },
        {
          "internalType": "string",
          "name": "party",
          "type": "string"
        }
      ],
      "name": "addCandidate",
      "outputs": [
        {
          "internalType": "uint256",
          "name": "",
          "type": "uint256"
        }
      ],
      "payable": false,
      "stateMutability": "nonpayable",
      "type": "function"
    },
    {
      "constant": false,
      "inputs": [
        {
          "internalType": "uint256",
          "name": "candidateID",
          "type": "uint256"
        }
      ],
      "name": "vote",
      "outputs": [],
      "payable": false,
      "stateMutability": "nonpayable",
      "type": "function"
    },
    {
      "constant": true,
      "inputs": [],
      "name": "checkVote",
      "outputs": [
        {
          "internalType": "bool",
          "name": "",
          "type": "bool"
        }
      ],
      "payable": false,
      "stateMutability": "view",
      "type": "function"
    },
    {
      "constant": true,
      "inputs": [],
      "name": "getCountCandidates",
      "outputs": [
        {
          "internalType": "uint256",
          "name": "",
          "type": "uint256"
        }
      ],
      "payable": false,
      "stateMutability": "view",
      "type": "function"
    },
    {
      "constant": true,
      "inputs": [
        {
          "internalType": "uint256",
          "name": "candidateID",
          "type": "uint256"
        }
      ],
      "name": "getCandidate",
      "outputs": [
        {
          "internalType": "uint256",
          "name": "",
          "type": "uint256"
        },
        {
          "internalType": "string",
          "name": "",
          "type": "string"
        },
        {
          "internalType": "string",
          "name": "",
          "type": "string"
        },
        {
          "internalType": "uint256",
          "name": "",
          "type": "uint256"
        }
      ],
      "payable": false,
      "stateMutability": "view",
      "type": "function"
    },
    {
      "constant": false,
      "inputs": [],
      "name": "startElection",
      "outputs": [],
      "payable": false,
      "stateMutability": "nonpayable",
      "type": "function"
    },
    {
      "constant": false,
      "inputs": [],
      "name": "endElection",
      "outputs": [],
      "payable": false,
      "stateMutability": "nonpayable",
      "type": "function"
    },
    {
      "constant": true,
      "inputs": [],
      "name": "getElectionState",
      "outputs": [
        {
          "internalType": "uint256",
          "name": "",
          "type": "uint256"
        }
      ],
      "payable": false,
      "stateMutability": "view",
      "type": "function"
    }
  ],
  "bytecode": "0x608060405234801561001057600080fd5b50336000806101000a81548173ffffffffffffffffffffffffffffffffffffffff021916908373ffffffffffffffffffffffffffffffffffffffff16021790555060008060146101000a81548160ff0219169083600281111561006f57fe5b021790555061115c806100836000396000f3fe608060405234801561001057600080fd5b50600436106100cf5760003560e01c806362d73eb81161008c578063b0417e9811610066578063b0417e9814610582578063b86eda91146105a4578063c19d93fb146105c2578063f869809c146105ee576100cf565b806362d73eb8146104d25780638da5cb5b146104dc578063a3ec138d14610526576100cf565b80630121b93f146100d45780630a84a2171461010257806326541b56146101205780633477ee2e1461028657806335b8e820146103a757806359f78468146104c8575b600080fd5b610100600480360360208110156100ea57600080fd5b810190808035906020019092919050505061060c565b005b61010a61086c565b6040518082815260200191505060405180910390f35b6102706004803603604081101561013657600080fd5b810190808035906020019064010000000081111561015357600080fd5b82018360208201111561016557600080fd5b8035906020019184600183028401116401000000008311171561018757600080fd5b91908080601f016020809104026020016040519081016040528093929190818152602001838380828437600081840152601f19601f820116905080830192505050505050509192919290803590602001906401000000008111156101ea57600080fd5b8201836020820111156101fc57600080fd5b8035906020019184600183028401116401000000008311171561021e57600080fd5b91908080601f016020809104026020016040519081016040528093929190818152602001838380828437600081840152601f19601f820116905080830192505050505050509192919290505050610876565b6040518082815260200191505060405180910390f35b6102b26004803603602081101561029c57600080fd5b81019080803590602001909291905050506109c4565b604051808581526020018060200180602001848152602001838103835286818151815260200191508051906020019080838360005b838110156103025780820151818401526020810190506102e7565b50505050905090810190601f16801561032f5780820380516001836020036101000a031916815260200191505b50838103825285818151815260200191508051906020019080838360005b8381101561036857808201518184015260208101905061034d565b50505050905090810190601f1680156103955780820380516001836020036101000a031916815260200191505b50965050505050505060405180910390f35b6103d3600480360360208110156103bd57600080fd5b8101908080359060200190929190505050610b24565b604051808581526020018060200180602001848152602001838103835286818151815260200191508051906020019080838360005b83811015610423578082015181840152602081019050610408565b50505050905090810190601f1680156104505780820380516001836020036101000a031916815260200191505b50838103825285818151815260200191508051906020019080838360005b8381101561048957808201518184015260208101905061046e565b50505050905090810190601f1680156104b65780820380516001836020036101000a031916815260200191505b50965050505050505060405180910390f35b6104d0610cb6565b005b6104da610e1c565b005b6104e4610f65565b604051808273ffffffffffffffffffffffffffffffffffffffff1673ffffffffffffffffffffffffffffffffffffffff16815260200191505060405180910390f35b6105686004803603602081101561053c57600080fd5b81019080803573ffffffffffffffffffffffffffffffffffffffff169060200190929190505050610f8a565b604051808215151515815260200191505060405180910390f35b61058a610faa565b604051808215151515815260200191505060405180910390f35b6105ac610ffe565b6040518082815260200191505060405180910390f35b6105ca611004565b604051808260028111156105da57fe5b60ff16815260200191505060405180910390f35b6105f6611017565b6040518082815260200191505060405180910390f35b6001600281111561061957fe5b600060149054906101000a900460ff16600281111561063457fe5b146106a7576040517f08c379a00000000000000000000000000000000000000000000000000000000081526004018080602001828103825260208152602001807f456c656374696f6e206973206e6f742063757272656e746c792061637469766581525060200191505060405180910390fd5b6000811180156106b957506003548111155b61072b576040517f08c379a00000000000000000000000000000000000000000000000000000000081526004018080602001828103825260148152602001807f496e76616c69642063616e64696461746520494400000000000000000000000081525060200191505060405180910390fd5b600260003373ffffffffffffffffffffffffffffffffffffffff1673ffffffffffffffffffffffffffffffffffffffff16815260200190815260200160002060009054906101000a900460ff16156107eb576040517f08c379a00000000000000000000000000000000000000000000000000000000081526004018080602001828103825260168152602001807f596f75206861766520616c726561647920766f7465640000000000000000000081525060200191505060405180910390fd5b6001600260003373ffffffffffffffffffffffffffffffffffffffff1673ffffffffffffffffffffffffffffffffffffffff16815260200190815260200160002060006101000a81548160ff021916908315150217905550600160008281526020019081526020016000206003016000815480929190600101919050555050565b6000600354905090565b60008060009054906101000a900473ffffffffffffffffffffffffffffffffffffffff1673ffffffffffffffffffffffffffffffffffffffff163373ffffffffffffffffffffffffffffffffffffffff161461091d576040517f08c379a00000000000000000000000000000000000000000000000000000000081526004018080602001828103825260268152602001806110de6026913960400191505060405180910390fd5b60036000815480929190600101919050555060405180608001604052806003548152602001848152602001838152602001600081525060016000600354815260200190815260200160002060008201518160000155602082015181600101908051906020019061098e929190611038565b5060408201518160020190805190602001906109ab929190611038565b5060608201518160030155905050600354905092915050565b6001602052806000526040600020600091509050806000015490806001018054600181600116156101000203166002900480601f016020809104026020016040519081016040528092919081815260200182805460018160011615610100020316600290048015610a765780601f10610a4b57610100808354040283529160200191610a76565b820191906000526020600020905b815481529060010190602001808311610a5957829003601f168201915b505050505090806002018054600181600116156101000203166002900480601f016020809104026020016040519081016040528092919081815260200182805460018160011615610100020316600290048015610b145780601f10610ae957610100808354040283529160200191610b14565b820191906000526020600020905b815481529060010190602001808311610af757829003601f168201915b5050505050908060030154905084565b600060608060008460016000878152602001908152602001600020600101600160008881526020019081526020016000206002016001600089815260200190815260200160002060030154828054600181600116156101000203166002900480601f016020809104026020016040519081016040528092919081815260200182805460018160011615610100020316600290048015610c045780601f10610bd957610100808354040283529160200191610c04565b820191906000526020600020905b815481529060010190602001808311610be757829003601f168201915b50505050509250818054600181600116156101000203166002900480601f016020809104026020016040519081016040528092919081815260200182805460018160011615610100020316600290048015610ca05780601f10610c7557610100808354040283529160200191610ca0565b820191906000526020600020905b815481529060010190602001808311610c8357829003601f168201915b5050505050915093509350935093509193509193565b6000809054906101000a900473ffffffffffffffffffffffffffffffffffffffff1673ffffffffffffffffffffffffffffffffffffffff163373ffffffffffffffffffffffffffffffffffffffff1614610d5b576040517f08c379a00000000000000000000000000000000000000000000000000000000081526004018080602001828103825260268152602001806110de6026913960400191505060405180910390fd5b60016002811115610d6857fe5b600060149054906101000a900460ff166002811115610d8357fe5b14610df6576040517f08c379a00000000000000000000000000000000000000000000000000000000081526004018080602001828103825260168152602001807f456c656374696f6e206973206e6f74206163746976650000000000000000000081525060200191505060405180910390fd5b6002600060146101000a81548160ff02191690836002811115610e1557fe5b0217905550565b6000809054906101000a900473ffffffffffffffffffffffffffffffffffffffff1673ffffffffffffffffffffffffffffffffffffffff163373ffffffffffffffffffffffffffffffffffffffff1614610ec1576040517f08c379a00000000000000000000000000000000000000000000000000000000081526004018080602001828103825260268152602001806110de6026913960400191505060405180910390fd5b60006002811115610ece57fe5b600060149054906101000a900460ff166002811115610ee957fe5b14610f3f576040517f08c379a00000000000000000000000000000000000000000000000000000000081526004018080602001828103825260248152602001806111046024913960400191505060405180910390fd5b6001600060146101000a81548160ff02191690836002811115610f5e57fe5b0217905550565b6000809054906101000a900473ffffffffffffffffffffffffffffffffffffffff1681565b60026020528060005260406000206000915054906101000a900460ff1681565b6000600260003373ffffffffffffffffffffffffffffffffffffffff1673ffffffffffffffffffffffffffffffffffffffff16815260200190815260200160002060009054906101000a900460ff16905090565b60035481565b600060149054906101000a900460ff1681565b60008060149054906101000a900460ff16600281111561103357fe5b905090565b828054600181600116156101000203166002900490600052602060002090601f016020900481019282601f1061107957805160ff19168380011785556110a7565b828001600101855582156110a7579182015b828111156110a657825182559160200191906001019061108b565b5b5090506110b491906110b8565b5090565b6110da91905b808211156110d65760008160009055506001016110be565b5090565b9056fe4f6e6c7920746865206f776e65722063616e20706572666f726d207468697320616374696f6e456c656374696f6e20697320616c72656164792073746172746564206f7220656e646564a265627a7a723158209e344a92cc69ac75a6c88de87a3831fe25226c9385d11eacf357c73df650100364736f6c63430005100032",
  "source": "\npragma solidity ^0.5.15;\n\ncontract Voting {\n    address public owner;\n\n    enum ElectionState { NotStarted, Active, Ended }\n    ElectionState public state;\n\n    struct Candidate {\n        uint id;\n        string name;\n        string party; \n        uint voteCount;\n    }\n\n    mapping (uint => Candidate) public candidates;\n    mapping (address => bool) public voters;\n\n    uint public countCandidates;\n\n    modifier onlyOwner() {\n        require(msg.sender == owner, \"Only the owner can perform this action\");\n        _;\n    }\n\n    constructor() public {\n        owner = msg.sender;\n        state = ElectionState.NotStarted;\n    }\n\n    function addCandidate(string memory name, string memory party) public onlyOwner returns(uint) {\n        countCandidates++;\n        candidates[countCandidates] = Candidate(countCandidates, name, party, 0);\n        return countCandidates;\n    }\n   \n    function vote(uint candidateID) public {\n        require(state == ElectionState.Active, \"Election is not currently active\");\n        require(candidateID > 0 && candidateID <= countCandidates, \"Invalid candidate ID\");\n\n        // Has not voted before\n        require(!voters[msg.sender], \"You have already voted\");\n              \n        voters[msg.sender] = true;\n        candidates[candidateID].voteCount++;      \n    }\n    \n    function checkVote() public view returns(bool){\n        return voters[msg.sender];\n    }\n       \n    function getCountCandidates() public view returns(uint) {\n        return countCandidates;\n    }\n\n    function getCandidate(uint candidateID) public view returns (uint, string memory, string memory, uint) {\n        return (candidateID, candidates[candidateID].name, candidates[candidateID].party, candidates[candidateID].voteCount);\n    }\n\n    function startElection() public onlyOwner {\n        require(state == ElectionState.NotStarted, \"Election is already started or ended\");\n        state = ElectionState.Active;\n    }\n\n    function endElection() public onlyOwner {\n        require(state == ElectionState.Active, \"Election is not active\");\n        state = ElectionState.Ended;\n    }\n\n    function getElectionState() public view returns (uint) {\n        return uint(state);\n    }\n}\n",
  "sourcePath": "D:\\Code\\Repo\\Voting-System\\server\\contracts\\Voting.sol",
  "compiler": {
    "name": "solc",
    "version": "0.5.16+commit.9c3226ce.Emscripten.clang"
  },
  "schemaVersion": "3.4.16",
  "updatedAt": "2026-07-02T12:10:42.310Z",
  "devdoc": {
    "methods": {}
  },
  "userdoc": {
    "methods": {}
  }
}